:100000000C941D010C943A010C943A010C94EB0EE3
:100010000C943A010C943A010C943A010C943A0174
:100020000C943A010C943A010C9475130C94AF1390
:100030000C943A010C943A010C943A010C943A0154
:100040000C943A010C943A010C943A010C943A0144
:100050000C943A010C943A010C943A010C943A0134
:100060000C943A010C943A010C943A010C943A0124
:100070000C943A010C943A010C943A010C943A0114
:100080000C943A010C943A010C943A010C943A0104
:100090000C943A010C943A010C943A010C943A01F4
:1000A0000C943A010C943A010C943A011613131370
:1000B00010130D130A13071304130113FE12FB127E
:1000C000F812F512F212EF12EC12E912E612E31234
:1000D000E012DD12DA12D712D412D112CE12CB12E4
:1000E000C812C512C212BF12BC12B912B612B31294
:1000F000B012AD12AA12A712A412A1129E129B1244
:100100009812951292128F128C12891286128312F3
:1001100080127D127A127712741271126E126B12A3
:100120006812651262125F125C1259125612084A66
:10013000D73B3BCE016E84BCBFFDC12F3D6C7431FB
:100140009ABD56833DDA3D00C77F11BED9E4BB4C52
:100150003E916BAAAABE000000803F05A84CCDB21C
:10016000D44EB93836A9020C50B9918688083CA6FD
:10017000AAAA2ABE000000803F0A00200020000A30
:100180000020002000200000010000BB011200023E
:100190000000CD0143000300001002040103090424
:1001A00014021202030904280206030309043002A0
:1001B000080001C1120180360181361201000202DD
:1001C000000010C0167A0400010102030109024375
:1001D00000020100C0320904000001020201000512
:1001E000240010010524010101042402060524064F
:1001F00000010705820310004009040100020A0003
:1002000000000705030240000007058402400000CB
:100210000403090412034A002E002000460069006E
:1002200065006E006500000006034D00320000000E
:100230000803340031003000000011241FBECFEF4E
:10024000DAE0DEBFCDBF11E0A0E0B1E0E4E3F8E327
:1002500002C005900D92AA31B107D9F711E0AAE1C9
:10026000B1E001C01D92A83CB107E1F70E94620E07
:100270000C94181C0C94000080E262E140E00E94A3
:10028000121080E262E141E00E94121080E262E11D
:1002900042E00E94121080E262E143E00E941210EC
:1002A00080E262E144E00E94121080E262E145E0F7
:1002B0000E94121080E262E146E00E94121008954E
:1002C0002F923F924F925F926F927F928F929F9266
:1002D000AF92BF92CF92DF92EF92FF920F931F9354
:1002E000DF93CF93CDB7DEB760970FB6F894DEBF3C
:1002F0000FBECDBF84E491E00E9478164090440187
:100300005090450150925D0140925C010091460180
:10031000109147011093650100936401E0904A0138
:10032000F0904B01F0925F01E0925E01C0904C01B1
:10033000D0904D01D0926701C0926601809050012B
:100340009090510190926101809260012090520141
:10035000309053013092690120926801A0905601BB
:10036000B0905701B0926301A09262016090580171
:100370007090590170926B0160926A012FEF4216E2
:1003800023E0520631F433E00F3F130711F40C94CD
:10039000BE0B4FEFE41643E0F40639F48FEFC816B6
:1003A00083E0D80611F40C94BE0B9FEF891693E0FE
:1003B000990639F4EFEF2E16E3E03E0611F40C94A3
:1003C000BE0BFFEFAF16F3E0BF0639F42FEF621656
:1003D00023E0720611F40C94BE0BC7018419950931
:1003E0009601201B310B229FB001239F700D329F7D
:1003F000700D1124889F9001899F300D989F300DBA
:100400001124620F731F80E090E00E943E190E9449
:10041000C61A0E940D1969837A838B839C83898114
:100420009A8190936D0180936C01C40184199509A0
:100430009101201B310B229FB001239F700D329F31
:10044000700D1124889F9001899F300D989F300D69
:100450001124620F731F80E090E00E943E190E94F9
:10046000C61A0E940D196D837E838F839887ED8154
:10047000FE81F0936F01E0936E01C5018419950927
:100480009301201B310B229FB001239F700D329FDF
:10049000700D1124889F9001899F300D989F300D19
:1004A0001124620F731F80E090E00E943E190E94A9
:1004B000C61A0E940D1969877A878B879C872985C0
:1004C0003A853093710120937001C4018E199F0900
:1004D00091012C193D09229FB001239F700D329F7D
:1004E000700D1124889F9001899F300D989F300DC9
:1004F0001124620F731F80E090E00E943E190E9459
:10050000C61A0E940D196D877E878F87988B8D85FF
:100510009E859093730180937201C5018E199F0986
:1005200093012C193D09229FB001239F700D329F2A
:10053000700D1124889F9001899F300D989F300D78
:100540001124620F731F80E090E00E943E190E9408
:10055000C61A0E940D197B018C017093750160937E
:100560007401A818B90862187308669CB001679CEA
:10057000700D769C700D1124AA9CC001AB9C900D4F
:10058000BA9C900D1124680F791F80E090E00E94C2
:100590003E190E94C61A0E940D197093770160934C
:1005A0007601E981FA81F0937D01E0937C012D8150
:1005B0003E8130937F0120937E01E985FA85F09397
:1005C0008101E09380012D853E8530938301209346
:1005D0008201F0928501E09284017093870160931B
:1005E000860180E090E0ECE7F1E020E030E041912E
:1005F00051918417950744F0241735073CF44817A8
:10060000590721F09A0102C09C01CA0141E0E83873
:10061000F40769F7909379018093780120937A0128
:1006200030937B0140916C0150916D0184179507C7
:1006300009F01BC1409172015091730124173507D5
:1006400009F040C040915C0150915D0150931B0145
:1006500040931A01409164015091650150931D012E
:1006600040931C01409160015091610150931F0122
:1006700040931E01409168015091690150932101FE
:100680004093200140915E0150915F0150932301FE
:1006900040932201409166015091670150932501DA
:1006A00040932401409162015091630150932701CE
:1006B0004093260140916A0150916B0150932901AA
:1006C000409328014091740150917501241735071A
:1006D00009F040C040915C0150915D0150931B01B5
:1006E00040931A01409164015091650150931D019E
:1006F00040931C01409162015091630150931F018E
:1007000040931E0140916A0150916B015093210169
:100710004093200140915E0150915F01509323016D
:100720004093220140916601509167015093250149
:100730004093240140916001509161015093270141
:10074000409326014091680150916901509329011D
:100750004093280140916E0150916F012417350795
:10076000E1F540915E0150915F0150931B01409370
:100770001A01409166015091670150931D01409309
:100780001C01409160015091610150931F01409301
:100790001E01509321014093200140915C01509132
:1007A0005D015093230140932201409164015091D7
:1007B00065015093250140932401409162015091BD
:1007C0006301509327014093260140916A015091A3
:1007D0006B01509329014093280140917001509181
:1007E00071012417350709F040C020915E01309156
:1007F0005F0130931B0120931A0120916601309113
:10080000670130931D0120931C01209162013091FA
:10081000630130931F0120931E0120916A013091E2
:100820006B01309321012093200120915C013091D4
:100830005D013093230120932201209164013091C6
:1008400065013093250120932401209160013091AE
:100850006101309327012093260120916801309196
:100860006901309329012093280120916E01309174
:100870006F018217930709F024C120917A0130910A
:100880007B0140917201509173012417350709F0E3
:1008900040C040915C0150915D0150931B01409319
:1008A0001A01409164015091650150931D014093DC
:1008B0001C0140915E0150915F0150931F014093D4
:1008C0001E014091660150916701509321014093B0
:1008D00020014091600150916101509323014093A8
:1008E0002201409168015091690150932501409384
:1008F000240140916201509163015093270140937C
:10090000260140916A0150916B0150932901409357
:10091000280140917601509177012417350709F09D
:1009200040C040915C0150915D0150931B01409388
:100930001A01409164015091650150931D0140934B
:100940001C01409162015091630150931F0140933B
:100950001E0140916A0150916B0150932101409317
:100960002001409160015091610150932301409317
:1009700022014091680150916901509325014093F3
:10098000240140915E0150915F01509327014093F3
:1009900026014091660150916701509329014093CF
:1009A000280140916C0150916D012417350709F021
:1009B00040C0409160015091610150931B014093F0
:1009C0001A01409168015091690150931D014093B3
:1009D0001C0140915E0150915F0150931F014093B3
:1009E0001E0140916601509167015093210140938F
:1009F000200140915C0150915D015093230140938F
:100A0000220140916401509165015093250140936A
:100A1000240140916201509163015093270140935A
:100A2000260140916A0150916B0150932901409336
:100A3000280140917001509171012417350709F088
:100A400040C0209160013091610130931B012093DF
:100A50001A01209168013091690130931D012093A2
:100A60001C01209162013091630130931F0120939A
:100A70001E0120916A0130916B0130932101209376
:100A8000200120915C0130915D013093230120937E
:100A9000220120916401309165013093250120935A
:100AA000240120915E0130915F0130932701209352
:100AB000260120916601309167013093290120932E
:100AC000280120917001309171018217930709F07C
:100AD00024C120917A0130917B014091760150919F
:100AE00077012417350709F040C040915C0150910F
:100AF0005D0150931B0140931A0140916401509194
:100B0000650150931D0140931C014091600150917B
:100B1000610150931F0140931E0140916801509163
:100B2000690150932101409320014091620150914D
:100B30006301509323014093220140916A01509137
:100B40006B01509325014093240140915E01509127
:100B50005F01509327014093260140916601509117
:100B600067015093290140932801409174015091ED
:100B700075012417350709F040C040915C01509180
:100B80005D0150931B0140931A0140916401509103
:100B9000650150931D0140931C0140915E015091ED
:100BA0005F0150931F0140931E01409166015091D7
:100BB00067015093210140932001409162015091BF
:100BC0006301509323014093220140916A015091A7
:100BD0006B01509325014093240140916001509195
:100BE0006101509327014093260140916801509183
:100BF0006901509329014093280140916E01509161
:100C00006F012417350709F040C0409162015091EF
:100C1000630150931B0140931A0140916A01509166
:100C20006B0150931D0140931C0140916001509154
:100C3000610150931F0140931E0140916801509142
:100C40006901509321014093200140915C01509132
:100C50005D01509323014093220140916401509122
:100C60006501509325014093240140915E0150910C
:100C70005F015093270140932601409166015091F6
:100C80006701509329014093280140916C015091D4
:100C90006D012417350709F040C0209162013091A1
:100CA000630130931B0120931A0120916A01309156
:100CB0006B0130931D0120931C0120915E01309146
:100CC0005F0130931F0120931E0120916601309136
:100CD0006701309321012093200120915C01309124
:100CE0005D01309323012093220120916401309112
:100CF00065013093250120932401209160013091FA
:100D000061013093270120932601209168013091E1
:100D100069013093290120932801209172013091BB
:100D200073018217930709F024C120917A01309151
:100D30007B0140916E0150916F012417350709F036
:100D400040C040915E0150915F0150931B01409360
:100D50001A01409166015091670150931D01409323
:100D60001C0140915C0150915D0150931F01409323
:100D70001E014091640150916501509321014093FF
:100D800020014091600150916101509323014093F3
:100D900022014091680150916901509325014093CF
:100DA00024014091620150916301509327014093C7
:100DB000260140916A0150916B01509329014093A3
:100DC000280140917601509177012417350709F0E9
:100DD00040C040915E0150915F0150931B014093D0
:100DE0001A01409166015091670150931D01409393
:100DF0001C01409162015091630150931F01409387
:100E00001E0140916A0150916B0150932101409362
:100E10002001409160015091610150932301409362
:100E2000220140916801509169015093250140933E
:100E3000240140915C0150915D0150932701409342
:100E4000260140916401509165015093290140931E
:100E5000280140916C0150916D012417350709F06C
:100E600040C0409160015091610150931B0140933B
:100E70001A01409168015091690150931D014093FE
:100E80001C0140915C0150915D0150931F01409302
:100E90001E014091640150916501509321014093DE
:100EA000200140915E0150915F01509323014093D6
:100EB00022014091660150916701509325014093B2
:100EC00024014091620150916301509327014093A6
:100ED000260140916A0150916B0150932901409382
:100EE000280140917401509175012417350709F0CC
:100EF00040C0209160013091610130931B0120932B
:100F00001A01209168013091690130931D012093ED
:100F10001C01209162013091630130931F012093E5
:100F20001E0120916A0130916B01309321012093C1
:100F3000200120915E0130915F01309323012093C5
:100F400022012091660130916701309325012093A1
:100F5000240120915C0130915D01309327012093A1
:100F6000260120916401309165013093290120937D
:100F7000280120917401309175018217930709F0BF
:100F800024C120917A0130917B01409176015091EA
:100F900077012417350709F040C040915E01509158
:100FA0005F0150931B0140931A01409166015091DB
:100FB000670150931D0140931C01409160015091C5
:100FC000610150931F0140931E01409168015091AF
:100FD0006901509321014093200140916201509199
:100FE0006301509323014093220140916A01509183
:100FF0006B01509325014093240140915C01509175
:101000005D01509327014093260140916401509166
:10101000650150932901409328014091700150913E
:1010200071012417350709F040C040915E015091CD
:101030005F0150931B0140931A014091660150914A
:10104000670150931D0140931C0140915C01509138
:101050005D0150931F0140931E0140916401509126
:10106000650150932101409320014091620150910C
:101070006301509323014093220140916A015091F2
:101080006B015093250140932401409160015091E0
:1010900061015093270140932601409168015091CE
:1010A00069015093290140932801409172015091A8
:1010B00073012417350709F040C040916201509137
:1010C000630150931B0140931A0140916A015091B2
:1010D0006B0150931D0140931C01409160015091A0
:1010E000610150931F0140931E014091680150918E
:1010F0006901509321014093200140915E0150917C
:101100005F01509323014093220140916601509169
:101110006701509325014093240140915C01509157
:101120005D01509327014093260140916401509145
:101130006501509329014093280140916C01509121
:101140006D012417350709F040C0209162013091EC
:10115000630130931B0120931A0120916A013091A1
:101160006B0130931D0120931C0120915C01309193
:101170005D0130931F0120931E0120916401309185
:101180006501309321012093200120915E0130916F
:101190005F01309323012093220120916601309159
:1011A0006701309325012093240120916001309143
:1011B000610130932701209326012091680130912D
:1011C0006901309329012093280120917601309103
:1011D00077018217930709F024C180917A019091D9
:1011E0007B0120917001309171018217930709F002
:1011F00040C0209160013091610130931B01209328
:101200001A01209168013091690130931D012093EA
:101210001C0120915C0130915D0130931F012093EE
:101220001E012091640130916501309321012093CA
:1012300020012091620130916301309323012093BA
:10124000220120916A0130916B0130932501209396
:10125000240120915E0130915F013093270120939A
:101260002601209166013091670130932901209376
:10127000280120917401309175018217930709F0BC
:1012800040C0209160013091610130931B01209397
:101290001A01209168013091690130931D0120935A
:1012A0001C0120915E0130915F0130931F0120935A
:1012B0001E01209166013091670130932101209336
:1012C000200120916201309163013093230120932A
:1012D000220120916A0130916B0130932501209306
:1012E000240120915C0130915D013093270120930E
:1012F00026012091640130916501309329012093EA
:10130000280120916E0130916F018217930709F037
:1013100040C0209162013091630130931B01209302
:101320001A0120916A0130916B0130931D012093C5
:101330001C0120915C0130915D0130931F012093CD
:101340001E012091640130916501309321012093A9
:10135000200120916001309161013093230120939D
:101360002201209168013091690130932501209379
:10137000240120915E0130915F0130932701209379
:101380002601209166013091670130932901209355
:10139000280120917201309173018217930709F09F
:1013A00040C0809162019091630190931B018093F2
:1013B0001A0180916A0190916B0190931D018093B5
:1013C0001C0180915E0190915F0190931F018093B9
:1013D0001E01809166019091670190932101809395
:1013E000200180916001909161019093230180938D
:1013F0002201809168019091690190932501809369
:10140000240180915C0190915D019093270180936C
:101410002601809164019091650190932901809348
:10142000280120911A0130911B0180912201909195
:101430002301820F931F22E030E0B9010E942F1B8D
:101440004B01709389016093880140911C01509178
:101450001D018091240190912501840F951FB901F0
:101460000E942F1B70938B0160938A01809106016B
:1014700090910701881A990A90922B0180922A0173
:1014800080910801909109016B01C81AD90AD09284
:101490002D01C0922C016091220170912301809155
:1014A0001A0190911B01681B790B882777FD8095A5
:1014B000982F0E9440197B018C01609394017093D6
:1014C000950180939601909397016091240170910A
:1014D000250180911C0190911D01681B790B8827C3
:1014E00077FD8095982F0E94401960939801709322
:1014F000990180939A0190939B01A80197010E9402
:101500004D187B018C016093900170939101809341
:101510009201909393012BE13FE245E652E40E9451
:10152000591A0E940D1970932F0160932E01B60174
:10153000882777FD8095982F0E9440195B016C01E8
:10154000C801B7010E94A41869837A838B839C83A6
:10155000B401882777FD8095982F0E9440191B01C0
:101560002C01C801B7010E94BC1A7B018C01C60185
:10157000B50129813A814B815C810E94591A3B0156
:101580004C01C201B101A80197010E94591A9B01A7
:10159000AC01C401B3010E94D9170E940D194B017F
:1015A00070938D0160938C01C601B501A80197016C
:1015B0000E94591A7B018C01C201B10129813A8133
:1015C0004B815C810E94591A9B01AC01C801B70193
:1015D0000E94DA170E940D1970938F0160938E019B
:1015E00097FE05C080E090E0ACE8B3EC04C080E07A
:1015F00090E0ACE8B3E48093B0019093B101A09384
:10160000B201B093B30180E090E0DC018093B401BB
:101610009093B501A093B601B093B7010E943C012D
:101620006E9A769A60918E0170918F01882777FD6E
:101630008095982F0E9440199B01AC016091B401E4
:101640007091B5018091B6019091B7010E94D917B0
:10165000062F472EE82EC92E862F942DAE2DBC2D99
:101660008093A0019093A101A093A201B093A30144
:1016700060918C0170918D01882777FD8095982F5E
:101680000E9440199B01AC016091B0017091B101C1
:101690008091B2019091B3010E94D917262E672E36
:1016A000882EA92E762F272F362D482D5A2D2093A0
:1016B0009C0130939D0140939E0150939F01202FE8
:1016C000342D4E2D5C2DCA01B901222D362D482D09
:1016D0005A2D0E944D187B018C016093BC017093C0
:1016E000BD018093BE019093BF0120919001309184
:1016F000910140919201509193010E94D9176093FA
:10170000C0017093C1018093C2019093C301C801CD
:10171000B701905823E333E345E652E40E94591A97
:101720000E940D19709335016093340180912E0150
:1017300090912F010E944F1585E891E00E941715A6
:1017400080913401909135010E944F1583E891E01A
:101750000E94171580918C0190918D010E944F1568
:1017600081E891E00E94171580918E0190918F0180
:101770000E944F158FE791E00E94171560960FB6F3
:10178000F894DEBF0FBECDBFCF91DF911F910F91B7
:10179000FF90EF90DF90CF90BF90AF909F908F9091
:1017A0007F906F905F904F903F902F9008956F9231
:1017B0007F928F929F92AF92BF92CF92DF92EF92E1
:1017C000FF920F931F93CF93DF9378940E94600151
:1017D0006E9A769880918C0190918D0197FF05C04B
:1017E00080E090E0ACE8B3EC04C080E090E0ACE8CE
:1017F000B3E48093B0019093B101A093B201B09390
:10180000B30180E090E0DC018093B4019093B501D6
:10181000A093B601B093B7010E943C016E9A769AEC
:1018200060918E0170918F01882777FD8095982FA8
:101830000E9440199B01AC016091B4017091B50107
:101840008091B6019091B7010E94D917C62FE72E5B
:10185000D82FD92E862F9E2DAD2FBD2D8093A00180
:101860009093A101A093A201B093A30160918C0178
:1018700070918D01882777FD8095982F0E944019DF
:101880009B01AC016091B0017091B1018091B201F6
:101890009091B3010E94D917162F672EA82EC92E3A
:1018A000762F272F362D4A2D5C2D20939C013093C7
:1018B0009D0140939E0150939F012C2F3E2D4D2F53
:1018C0005D2DCA01B901212F362D4A2D5C2D0E94B4
:1018D0004D187B018C016093BC017093BD01809316
:1018E000BE019093BF0120919001309191014091F0
:1018F0009201509193010E94D917D62FC72FD82E4D
:10190000C92EAE019601852F942FA32FB22F80935D
:10191000C0019093C101A093C201B093C301C8015B
:10192000B701905823E333E345E652E40E94591A85
:101930000E940D197093350160933401AE01960138
:10194000652F742F832F922F23E333E345E652E470
:101950000E94591A0E940D1970933301609332014D
:1019600080912E0190912F010E944F158DE791E0FB
:101970000E94171580913401909135010E944F15F6
:101980008BE791E00E94171580913201909133010D
:101990000E944F1589E791E00E9417150E942D13B0
:1019A000809132019091330118161906E4F42D9AB2
:1019B0002B980E943C0180E262E140E00E94E50F2A
:1019C00080E262E141E00E94E50F80E262E143E0F3
:1019D0000E94E50F80E262E144E00E94E50F80E2B0
:1019E00062E145E01BC02D982B9A0E943C0180E2E9
:1019F00062E140E00E94E50F80E262E141E00E9486
:101A0000E50F80E262E142E00E94E50F80E262E1E0
:101A100043E00E94E50F80E262E144E00E94E50FAE
:101A20006E9A769AC6E6D7E136C07894D0938B004A
:101A3000C0938A00D0938D00C0938C008FEF92E505
:101A4000A7E081509040A040E1F700C00000109254
:101A50008B0010928A0010928D0010928C008FEFF4
:101A600092E5A7E081509040A040E1F700C000005F
:101A70000E9460010E943C0180E262E144E00E9419
:101A8000E50F80E262E145E00E94E50F80E262E15D
:101A900046E00E94E50F60912E0170912F0188278A
:101AA00077FD8095982F0E9440193B014C01609171
:101AB000340170913501882777FD8095982F0E9419
:101AC00040197B018C01A0900E01B0900F01C090D5
:101AD0001001D0901101A60195010E94DA179B0117
:101AE000AC01C401B3010E944E1A18160CF49DCF2C
:101AF000C801B701A60195010E94D9179B01AC014D
:101B0000C401B3010E94A01887FD8FCF0E943C0141
:101B100080E89EE390938B0080938A0090938D00E1
:101B200080938C002D9A2B9A6091B0017091B10135
:101B30008091B2019091B30120E030E0A9010E94B0
:101B4000A01887FD0AC029C07894AFEFBCE71197B1
:101B5000F1F700C000000E94600160918C0170915B
:101B60008D01882777FD8095982F0E94401920913C
:101B7000B0013091B1014091B2015091B3010E9486
:101B80004E1A18160CF31FC078948FEF9CE701973C
:101B9000F1F700C000000E94600160918C0170911B
:101BA0008D01882777FD8095982F0E9440192091FC
:101BB000B0013091B1014091B2015091B3010E9446
:101BC000A01887FDE1CF10928B0010928A0010922E
:101BD0008D0010928C002D982B980E943C0180E281
:101BE00062E144E00E94E50F80E262E146E00E948B
:101BF000E50FDF91CF911F910F91FF90EF90DF9054
:101C0000CF90BF90AF909F908F907F906F900895EE
:101C10000E943C0180E262E140E00E94E50F80E228
:101C200062E142E00E94E50F80E262E143E00E944F
:101C3000E50F80E262E144E00E94E50F80E262E1AC
:101C400045E00E94E50F80E262E146E00E94E50F78
:101C5000109243011092420108950E943C0180E2DB
:101C600062E140E00E94E50F80E262E141E00E9413
:101C7000E50F80E262E144E00E94E50F80E262E16C
:101C800046E00E94E50F109243011092420110922B
:101C90008B0010928A0010928D0010928C00789424
:101CA000FECF0E943C0180E262E144E00E94E50F29
:101CB00080E262E146E00E94E50F1092430110923B
:101CC0004201089580E880936100109261000E94B3
:101CD000370F0E944D1181E064E34CE00E945310E5
:101CE0000E9407178FEF9CE79093890080938800EC
:101CF00010928B0010928A0010928D0010928C002E
:101D00008091810080618093810080918100886052
:101D10008093810080918000826080938000809118
:101D20008000816080938000809180008062809339
:101D30008000809180008F7E809380008091800061
:101D4000886080938000809180008B7F80938000EA
:101D5000809181008B7F80938100809181008D7FB5
:101D6000809381008091810081608093810080E276
:101D70000E94DB0F80E260E040E00E94E50F80E21D
:101D800060E041E00E94E50F80E260E042E00E94F6
:101D9000E50F80E260E043E00E94E50F80E260E052
:101DA00044E00E94E50F80E260E045E00E94E50F1C
:101DB00080E260E046E00E94E50F80E260E047E0FC
:101DC0000E94E50F0E943C01269A279A259A239AA1
:101DD0000E946001FDCF1F920F920FB60F92112447
:101DE0002F933F934F935F936F937F938F939F9323
:101DF000AF93BF93EF93FF9386E391E06CE00E9473
:101E0000AB10882361F06A9A8EB194E089278EB96D
:101E10008091360190E0909343018093420180913C
:101E2000420190914301813A910561F0843A910514
:101E300031F0803A910551F40E94080E07C00E94CB
:101E40002D0E04C00E94510E0E94D70BFF91EF91FE
:101E5000BF91AF919F918F917F916F915F914F91C2
:101E60003F912F910F900FBE0F901F901895589A89
:101E7000599A5A9A8CE08093B800E9E6F0E08081A4
:101E80008062808380818F7E8083EA9A789408952F
:101E900084E88093BC008091BC0087FFFCCF8091D8
:101EA000BB00089584E98093BC00089520E030E0F1
:101EB0008091BC0087FD06C02F5F3F4F83E0293E25
:101EC0003807B1F781E093E0283E390709F480E054
:101ED00008958093BB0084E88093BC000E94560F55
:101EE000882321F08091B900887F089580E00895CB
:101EF0001F93DF93CF930F92CDB7DEB7182F84EAED
:101F00008093BC0069830E94560F6981882371F019
:101F1000812F880F662331F08F5F0E94690F88340C
:101F200051F404C00E94690F803229F484E980933F
:101F3000BC0080E001C081E00F90CF91DF911F9144
:101F40000895CF93DF93C62FD42F60E00E94780FBF
:101F5000882379F08C2F0E94690F882351F08D2FF0
:101F60000E94690F882329F084E98093BC0081E0F6
:101F700001C080E0DF91CF910895CF93DF93C82F08
:101F8000D62F60E00E94780F882389F08D2F0E9461
:101F9000690F882361F084E98093BC008C2F61E095
:101FA0000E94780F882319F00E94480F01C080E03A
:101FB000DF91CF91089565E048E30E94A10F91E081
:101FC000882309F490E0892F08951F93CF93DF931E
:101FD000D82FC62F142F0E94BD0FC23058F4E1E055
:101FE000F0E002C0EE0FFF1F1A95E2F74E2F40956A
:101FF00048230DC09C2F9251923078F421E030E0BC
:1020000002C0220F331F1A95E2F7482F422B8D2F63
:102010006C2F0E94A10F81E001C080E0DF91CF9181
:102020001F9108951F93CF93DF93D82FC62F142F9E
:102030000E94BD0F9C2F9251923058F4E1E0F0E0E5
:1020400002C0EE0FFF1F1A95E2F74E2F409548236E
:102050000BC0C23078F421E030E002C0220F331F01
:102060001A95E2F7482F422B8D2F6C2F0E94A10F5B
:1020700081E001C080E0DF91CF911F910895DF934F
:10208000CF930F92CDB7DEB749830E94BD0F90E08A
:10209000498102C0959587954A95E2F781700F9026
:1020A000CF91DF910895DF93CF9300D00F92CDB7FA
:1020B000DEB74B836A8389830E94370F94EA90933B
:1020C000BC0089816A814B819091BC0097FFFCCF55
:1020D00090E59093BB0094E89093BC009091BC0075
:1020E00097FFFCCF9091B900987F903229F484E952
:1020F0008093BC0080E029C091E09093BB0094E8FD
:102100009093BC009091BC0097FFFCCF8093BB00E4
:1021100084E88093BC008091BC0087FFFCCF609373
:10212000BB0084E88093BC008091BC0087FFFCCF9B
:102130004093BB0084E88093BC008091BC0087FF83
:10214000FCCF84E98093BC0081E00F900F900F904A
:10215000CF91DF91089524EA2093BC002091BC0028
:1021600027FFFCCF21E52093BB0024E82093BC008F
:102170002091BC0027FFFCCF2091B900287F283494
:10218000A9F024EC2093BC002091BC0027FFFCCFD9
:102190002091BB00261751F4FC0120E030E07727A6
:1021A00067FD70956150704044EC10C084E98093E5
:1021B000BC0080E008954093BC005091BC0057FFE4
:1021C000FCCF5091BB0051932F5F3F4F261737072D
:1021D00094F344E84093BC004091BC0047FFFCCF1F
:1021E0004091BB00820F931FFC01408384E98093E0
:1021F000BC0081E00895F89494EA9093BC0090911B
:10220000BC0097FFFCCF90E59093BB0094E89093BF
:10221000BC009091BC0097FFFCCF9091B900987FD3
:10222000903231F484E98093BC00789480E0089582
:1022300093E09093BB0094E89093BC009091BC0015
:1022400097FFFCCF8093BB0084E88093BC00809113
:10225000BC0087FFFCCF862F972FFC0180E090E029
:10226000552747FD509524E80AC031913093BB00B3
:102270002093BC003091BC0037FFFCCF019684173F
:1022800095079CF384E98093BC00789481E00895DD
:102290008091E80080FFFCCF089581E08093D70013
:1022A00080EA8093D80082E189BD09B400FEFDCFA9
:1022B00080E98093D8001092E0001092C40110923F
:1022C000C5018CE08093E200789408958091C40168
:1022D00008959FB7F8948091C401882339F083E072
:1022E0008093E9008091E80085FD03C09FBF8FEFD8
:1022F00008958091F1002091E80025FD03C02BE6B0
:102300002093E8009FBF08959FB7F8948091C4017F
:10231000882331F083E08093E9008091F20001C0CE
:1023200080E09FBF08958091C401882371F08FB72A
:10233000F89493E09093E9009BE602C09093E80044
:102340002091E80025FDFACF8FBF08959091C40138
:102350009923D1F19FB7F89424E02093E9002091CC
:10236000C701222341F02091E80025FD02C09FBF54
:102370002BC01092C7012091E400275E34E0409109
:10238000E80045FD12C09FBF9091E400921721F430
:1023900081E08093C70118C09091C4019923B1F0E6
:1023A0009FB7F8943093E900EACF8093F1008091D1
:1023B000E80085FD03C08AE38093E80085E0809310
:1023C000C6019FBF80E008958FEF08958FEF0895B5
:1023D0009091C4019923D9F09FB7F89424E02093F9
:1023E000E9002091E80025FD03C09FBF8FEF08950D
:1023F0008093F1008091E80085FD03C08AE380931B
:10240000E80085E08093C6019FBF80E008958FEFCC
:102410000895CF93DC018091C401882309F41AC187
:102420002FB7F89484E08093E9008091C701882356
:1024300009F405C18091E80085FD02C02FBF0AC1E3
:102440001092C701FCC08091E400875E9091E80083
:1024500095FD13C02FBF9091E400981721F481E0FF
:102460008093C701F7C09091C401992309F4F2C089
:102470002FB7F894C093E900E9CF8091F200E52FDF
:10248000E81B8E2F90E06817790708F4E62F6E1B83
:102490007109F0E0E134F10508F0C5C0EA5AFF4FD8
:1024A000EE0FFF1F0590F491E02D09948D9180931C
:1024B000F1008D918093F1008D918093F1008D91C9
:1024C0008093F1008D918093F1008D918093F100C4
:1024D0008D918093F1008D918093F1008D91809387
:1024E000F1008D918093F1008D918093F1008D9199
:1024F0008093F1008D918093F1008D918093F10094
:102500008D918093F1008D918093F1008D91809356
:10251000F1008D918093F1008D918093F1008D9168
:102520008093F1008D918093F1008D918093F10063
:102530008D918093F1008D918093F1008D91809326
:10254000F1008D918093F1008D918093F1008D9138
:102550008093F1008D918093F1008D918093F10033
:102560008D918093F1008D918093F1008D918093F6
:10257000F1008D918093F1008D918093F1008D9108
:102580008093F1008D918093F1008D918093F10003
:102590008D918093F1008D918093F1008D918093C6
:1025A000F1008D918093F1008D918093F1008D91D8
:1025B0008093F1008D918093F1008D918093F100D3
:1025C0008D918093F1008D918093F1008D91809396
:1025D000F1008D918093F1008D918093F1008D91A8
:1025E0008093F1008D918093F1008D918093F100A3
:1025F0008D918093F1008D918093F1008D91809366
:10260000F1008D918093F1008D918093F1008D9177
:102610008093F1008D918093F1008D918093F10072
:102620008D918093F1008D918093F1008091E8006D
:1026300085FD02C04093E8003093C60104C0C4E0A9
:1026400050E44AE335E06115710509F0FCCE2FBF77
:1026500080E001C08FEFCF9108958FB7F8949091EB
:10266000C601992341F094E09093E9009AE3909396
:10267000E8001092C6018FBF089580911601089559
:102680008091170108958091180108958091C501E6
:1026900008959FB7F8942091C401222339F022E0D5
:1026A0002093E9003091E80035FD03C09FBF8FEF14
:1026B000089531EA3093F10030E23093F100109246
:1026C000F1001092F1001092F1001092F1002093AD
:1026D000F1001092F1008093F1001092F1008AE372
:1026E0008093E8009FBF80E008951F920F920FB67D
:1026F0000F9211248F939F938091E1001092E1003B
:1027000083FF11C01092E90091E09093EB001092CA
:10271000EC0092E19093ED0098E09093F00010921D
:10272000C4011092C50182FF13C08091C4018823A7
:1027300079F08091C601882359F081508093C601B9
:10274000882331F484E08093E9008AE38093E800F1
:102750009F918F910F900FBE0F901F9018951F9211
:102760000F920FB60F921124EF92FF920F931F93C7
:102770002F933F934F935F936F937F938F939F9389
:10278000AF93BF93EF93FF93DF93CF930F92CDB7A8
:10279000DEB71092E9008091E80083FF2DC12091FF
:1027A000F1003091F100E090F100FF244091F10040
:1027B000942F80E0E82AF92A0091F10010E040917E
:1027C000F100942F80E0082B192B6091F100A0916B
:1027D000F10082EF8093E800363009F059C08EE8AE
:1027E00091E09C0125503040FC0137974591549170
:1027F0004E155F05F9F4F9014591549140175107C1
:10280000C9F42E5F3F4FF901859194912E5F3F4FA0
:10281000F9012491462F50E07A2F60E0462B572B88
:102820004F3F510519F010F04FEF50E0421750F4B0
:10283000242F08C00796295F3F4FF1E0883B9F0790
:1028400099F6DAC0AEEF4091E80050E0BA01657049
:10285000707061157105B9F342FDD1C0322F21317D
:1028600008F030E1AC01632F07C0FA014F5F5F4F02
:10287000E491E093F10061506623B9F7830F911D55
:10288000231BA093E8002223F1F63031E1F2B7C018
:10289000353051F48EEF8093E8000E9448118E2D60
:1028A00080688093E300ABC0393051F5222309F0F2
:1028B000A3C0E092C4011092C5011092C6018EEF30
:1028C0008093E80041E081EB91E04093E900FC0156
:1028D0000196E491E093EB00EE2369F09C012F5FF9
:1028E0003F4FFC0184918093EC00C9010196F901EE
:1028F00024912093ED004F5F453039F78EE177C08A
:10290000383051F4203809F077C00E944811809186
:10291000C4018093F10048C0313279F4213A09F0C2
:102920006BC00E944811E2E1F1E081918093F100D7
:1029300041E0E931F407C9F737C03032A1F4213260
:1029400009F05AC08091E80082FFFCCFE2E1F1E09B
:102950008091F100819381E0E931F807C9F78BEFAD
:102960008093E80021C0323241F4213209F044C0A2
:10297000E092C5010E94481117C03323C9F429838E
:102980000E9448112981223851F40093E900909166
:10299000EB0081E095FF80E01092E90001C080E04B
:1029A0008093F1001092F1008EEF8093E80027C031
:1029B000313011F0333001F52230F1F4E114F1043B
:1029C000D9F40F77802F81508430B0F48EEF80934C
:1029D000E8000093E900333079F089E18093EB005F
:1029E00081E090E002C0880F991F0A95E2F780937A
:1029F000EA001092EA0003C081E28093EB000F909E
:102A0000CF91DF91FF91EF91BF91AF919F918F9106
:102A10007F916F915F914F913F912F911F910F91F6
:102A2000FF90EF900F900FBE0F901F9018951F937F
:102A3000CF93DF93EC01FE0121961491112349F00D
:102A40001A3019F48DE00E94A611812F0E94A61160
:102A5000F2CFDF91CF911F9108958A3010F490E367
:102A600001C097E3890F0E94A6110895CF93C82F44
:102A700082958F700E942D158C2F8F700E942D15BE
:102A8000CF910895CF93C82F892F0E9436158C2F90
:102A90000E943615CF9108950E9436150895EF9241
:102AA000FF920F931F93DF93CF93CDB7DEB7279796
:102AB0000FB6F894DEBF0FBECDBF8E010F5F1F4F64
:102AC00027E0F80111922A95E9F7B8014AE050E0B1
:102AD0000E94561B88E0E82EF12CEC0EFD1EF8013A
:102AE00081918F01882311F00E94A6110E151F05F8
:102AF000B1F727960FB6F894DEBF0FBECDBFCF91CA
:102B0000DF911F910F91FF90EF900895EF92FF9248
:102B10000F931F93DF93CF9300D000D00F92CDB7C8
:102B2000DEB78E010F5F1F4F25E0F80111922A9545
:102B3000E9F7B8014AE050E00E94D01B96E0E92E88
:102B4000F12CEC0EFD1EF80181918F01882311F00C
:102B50000E94A6110E151F05B1F70F900F900F9050
:102B60000F900F90CF91DF911F910F91FF90EF90F9
:102B70000895EF92FF920F931F93DF93CF93CDB7FA
:102B8000DEB72B970FB6F894DEBF0FBECDBF8E0118
:102B90000F5F1F4F2BE0F80111922A95E9F7A8016A
:102BA0002AE030E00E94771B2CE0E22EF12CEC0EA4
:102BB000FD1EF80181918F01882311F00E94A6115A
:102BC0000E151F05B1F72B960FB6F894DEBF0FBE9A
:102BD000CDBFCF91DF911F910F91FF90EF9008959E
:102BE000EF92FF920F931F93DF93CF93CDB7DEB792
:102BF0002A970FB6F894DEBF0FBECDBF8E010F5FD0
:102C00001F4F2AE0F80111922A95E9F7A8012AE05E
:102C100030E00E94AB1B3BE0E32EF12CEC0EFD1EDE
:102C2000F80181918F01882311F00E94A6110E15E1
:102C30001F05B1F72A960FB6F894DEBF0FBECDBFC1
:102C4000CF91DF911F910F91FF90EF90089520E0B9
:102C500030E08091BC0087FD06C02F5F3F4F83E0CE
:102C6000293E3807B1F781E093E0283E390709F49F
:102C700080E008958093BB0084E88093BC000E94AC
:102C80002716882321F08091B900887F089580E07D
:102C90000895CF93C82F84EA8093BC000E94271622
:102CA000882351F08C2F880F8F5F0E943A1688344A
:102CB00029F484E98093BC0080E001C081E0CF91D9
:102CC0000895CF93C82F84EA8093BC000E942716F2
:102CD000882349F08C2F880F0E943A16803229F4FD
:102CE00084E98093BC0080E001C081E0CF91089529
:102CF000EF92FF920F931F93DF93CF93CDB7DEB781
:102D000060970FB6F894DEBF0FBECDBFF82EE92E48
:102D10008E010F5F1F4F80E1F80111928A95E9F74C
:102D200088E50E946116882309F463C086E30E9447
:102D30003A16882309F45DC084E98093BC00F5E865
:102D4000FA95F1F7000088E50E944916882309F4F6
:102D500050C0F8019E01205F3F4F84EC8093BC007F
:102D60009091BC0097FFFCCF9091BB009193E2172C
:102D7000F307A1F784E88093BC008091BC0087FF33
:102D8000FCCF8091BB00888B84E98093BC00FE015E
:102D90003296C701A92FBE2D035F1F4F228130E05D
:102DA000C9018073907054E0880F991F5A95E1F71C
:102DB0004081840F911D11969C938E93C901807C54
:102DC0009070880F991F880F991F4181840F911D62
:102DD00013969C938E9312972F70307015963C9398
:102DE0002E93149733961696E017F107B9F681E003
:102DF00001C080E060960FB6F894DEBF0FBECDBF75
:102E0000CF91DF911F910F91FF90EF900895CF9395
:102E10000E94370F88E50E946116882309F4C2C01A
:102E200080E30E943A16882309F4BCC081E00E9426
:102E30003A16882309F4B6C084E98093BC008FE376
:102E40009CE90197F1F700C0000088E50E94611637
:102E5000882309F4A7C080E00E943A16882309F469
:102E6000A1C080E00E943A16882309F49BC080E04C
:102E70000E943A16882309F495C080E00E943A1611
:102E8000882309F48FC080E00E943A16882309F451
:102E900089C080E00E943A16882309F483C080E04C
:102EA0000E943A16882309F47DC080E90E943A16F0
:102EB000882309F477C0C4E9C093BC008FE39CE980
:102EC0000197F1F700C0000088E50E946116882391
:102ED00009F468C087E00E943A16882309F462C0AA
:102EE00080E00E943A16882309F45CC081E40E94C5
:102EF0003A16882309F456C0C093BC008FE39CE9BE
:102F00000197F1F700C0000088E50E946116882350
:102F100009F448C08AE10E943A16882309F442C0A5
:102F200080E40E943A168823E9F180E00E943A1674
:102F30008823C1F1C093BC008FE39CE90197F1F7AE
:102F400000C0000088E50E946116882359F183E3E0
:102F50000E943A16882331F183E00E943A168823B2
:102F600009F1C093BC008FE39CE90197F1F700C021
:102F7000000088E50E9461168823A1F080E30E948A
:102F80003A16882379F088E00E943A16882351F097
:102F9000C093BC008FE39CE90197F1F700C00000EB
:102FA00081E001C080E0CF91089584E98093BC0066
:102FB00008955058BB27AA270ED025C2EED130F075
:102FC000F3D120F031F49F3F11F41EF4BEC10EF492
:102FD000E095E7FBB4C1E92F38D280F3BA17620756
:102FE00073078407950718F071F49EF550C20EF42C
:102FF000E0950B2EBA2FA02D0B01B90190010C0109
:10300000CA01A0011124FF27591B99F0593F50F420
:10301000503E68F11A16F040A22F232F342F442778
:10302000585FF3CF469537952795A795F040539570
:10303000C9F77EF41F16BA0B620B730B840BBAF040
:103040009150A1F0FF0FBB1F661F771F881FC2F7AB
:103050000EC0BA0F621F731F841F48F487957795BF
:103060006795B795F7959E3F08F0B3CF9395880F76
:1030700008F09927EE0F9795879508958ED158F00F
:1030800080E891E009F49EEF8FD128F040E851E00C
:1030900059F45EEF09C059C1FAC1E92FE078D5D1E2
:1030A00068F3092E052AC1F3261737074807590781
:1030B00038F00E2E07F8E02569F0E025E0640AC03C
:1030C000EF6307F8009407FADB01B9019D01DC0109
:1030D000CA01AD01EF9348D096D10AD05F91552334
:1030E00031F02BED3FE049E450FD49EC63CF08950A
:1030F000DF93DD27B92FBF7740E85FE31616170689
:1031000048075B0710F4D92FCDD19F938F937F93FE
:103110006F937AD2EEE2F1E01BD175D12F913F91FE
:103120004F915F91D2D1DD2349F09058A2EA2AED68
:103130003FE049EC5FE3D0785D274DDFDF9163C16D
:10314000DAD008F481E0089537D1E3956DC12CD130
:1031500040F023D130F021F45F3F19F0F0C051115D
:1031600097C1F3C072D198F39923C9F35523B1F3F2
:10317000951B550BBB27AA2762177307840738F0E6
:103180009F5F5F4F220F331F441FAA1FA9F333D045
:103190000E2E3AF0E0E830D091505040E695001CF9
:1031A000CAF729D0FE2F27D0660F771F881FBB1FB5
:1031B000261737074807AB07B0E809F0BB0B802D8F
:1031C000BF01FF2793585F4F2AF09E3F510568F0DB
:1031D000B6C05EC15F3FECF3983EDCF38695779511
:1031E0006795B795F7959F5FC9F7880F911D9695DD
:1031F000879597F90895E1E0660F771F881FBB1F39
:10320000621773078407BA0720F0621B730B840BE5
:10321000BA0BEE1F88F7E095089504D06894B111B9
:1032200037C108951AD188F09F5790F0B92F992788
:10323000B751A0F0D1F0660F771F881F991F1AF0C1
:10324000BA95C9F712C0B13081F021D1B1E008952B
:103250001EC1672F782F8827B85F39F0B93FCCF3AC
:10326000869577956795B395D9F73EF490958095B7
:10327000709561957F4F8F4F9F4F0895E89409C0D7
:1032800097FB3EF490958095709561957F4F8F4F99
:103290009F4F9923A9F0F92F96E9BB279395F695AF
:1032A000879577956795B795F111F8CFFAF4BB0F2D
:1032B00011F460FF1BC06F5F7F4F8F4F9F4F16C091
:1032C000882311F096E911C0772321F09EE8872F1B
:1032D000762F05C0662371F096E8862F70E060E0D7
:1032E0002AF09A95660F771F881FDAF7880F969550
:1032F000879597F90895990F0008550FAA0BE0E8F4
:10330000FEEF16161706E807F907C0F012161306A7
:10331000E407F50798F0621B730B840B950B39F4E7
:103320000A2661F0232B242B252B21F408950A264D
:1033300009F4A140A6958FEF811D811D089597F98D
:103340009F6780E870E060E008959FEF80EC08954B
:10335000DF93CF931F930F93FF92EF92DF927B0146
:103360008C01689405C0DA2EEF01AFD0FE01E8941D
:10337000A5912591359145915591AEF3EF012BDE45
:10338000FE019701A801DA9479F7DF90EF90FF90A2
:103390000F911F91CF91DF91089500240A94161682
:1033A000170618060906089500240A941216130633
:1033B000140605060895C9CF50D0E8F3E894E0E07C
:1033C000BB279F57F0F02AED3FE049EC06C0EE0F17
:1033D000BB0F661F771F881F28F0B23A620773077A
:1033E000840728F0B25A620B730B840BE3959A950D
:1033F00072F7803830F49A95BB0F661F771F881FCD
:10340000D2F7904808C1092E0394000C11F48823C8
:1034100052F0BB0F40F4BF2B11F460FF04C06F5F8C
:103420007F4F8F4F9F4F0895EF93E0FF06C0A2EAB2
:103430002AED3FE049EC5FEBCEDDE5DF0F90039432
:1034400001FC9058EBE5F1E0F9C057FD9058440FAE
:10345000551F59F05F3F71F04795880F97FB991FF3
:1034600061F09F3F79F087950895121613061406B0
:10347000551FF2CF4695F1DF08C01616170618063D
:10348000991FF1CF86957105610508940895E89418
:10349000BB2766277727CB0197F908952CDF08F41F
:1034A0008FEF08959B01AC0160E070E080E89FE33E
:1034B000AEC00BD0A8CF71DF28F076DF18F09523CF
:1034C00009F03DCF42CF1124E3CFBFDFA0F3959F9A
:1034D000D1F3950F50E0551F629FF001729FBB27FB
:1034E000F00DB11D639FAA27F00DB11DAA1F649FA7
:1034F0006627B00DA11D661F829F2227B00DA11D5A
:10350000621F739FB00DA11D621F839FA00D611DDF
:10351000221F749F3327A00D611D231F849F600D00
:10352000211D822F762F6A2F11249F5750408AF039
:10353000E1F088234AF0EE0FFF1FBB1F661F771FC5
:10354000881F91505040A9F79E3F510570F0F7CE6B
:103550009FCF5F3FECF3983EDCF3869577956795B8
:10356000B795F795E7959F5FC1F7FE2B880F911DE3
:103570009695879597F908959F931EDF0F9007FC06
:10358000EE5F52CF11F40EF4E0CE43C066DFD0F30D
:103590009923D9F3CEF39F57550B87FF48D00024CA
:1035A000A0E640EA900180585695979528F4805CF3
:1035B000660F771F881F20F026173707480730F45B
:1035C000621B730B840B202931294A2BA695179473
:1035D0000794202531254A2758F7660F771F881F43
:1035E00020F026173707480730F4620B730B840B63
:1035F000200D311D411DA09581F7B901842F9158EF
:10360000880F9695879508959B01AC0152CFAADD4E
:10361000FACE9F3F31F0915020F4879577956795CA
:10362000B795880F911D9695879597F908959150B4
:103630005040660F771F881FD2F708959F938F938E
:103640007F936F93FF93EF939B01AC0132DFEF9178
:10365000FF917EDE2F913F914F915F912ACF97FB93
:10366000092E07260AD077FD04D00CD006D0002002
:103670001AF4709561957F4F0895F6F790958195AE
:103680009F4F0895AA1BBB1B51E107C0AA1FBB1F78
:10369000A617B70710F0A61BB70B881F991F5A95DE
:1036A000A9F780959095BC01CD010895FB019F017C
:1036B000E8944230C4F04532B4F44A3029F497FB20
:1036C0001EF4909581959F4F642F77270E94421B8F
:1036D000805D8A330CF0895D8193CB010097A1F75F
:1036E00016F45DE251931082C9010C94E61BFA01B5
:1036F000CF93FF93EF93223044F1253234F5C22F5C
:10370000E894CA3049F497FB3EF490958095709503
:1037100061957F4F8F4F9F4F2C2F3327442755277D
:10372000FF93EF930E94F61BEF91FF91605D6A3368
:103730000CF0695D6193B901CA016050704080402E
:10374000904051F716F4CDE2C19310828F919F9172
:10375000CF910C94E61BFA01CF93FF93EF932230A5
:10376000CCF02532BCF4C22F2C2F33274427552709
:10377000FF93EF930E94F61BEF91FF91605D6A3318
:103780000CF0695D6193B901CA01605070408040DE
:10379000904051F710828F919F91CF910C94E61B2E
:1037A000FB019F01423074F0453264F4642F7727A7
:1037B0000E94421B805D8A330CF0895D8193CB01AE
:1037C0000097A1F71082C9010C94E61BDC01FC01F3
:1037D000672F71917723E1F7329704C07C916D9345
:1037E00070836291AE17BF07C8F30895A1E21A2E45
:1037F000AA1BBB1BFD010DC0AA1FBB1FEE1FFF1F95
:10380000A217B307E407F50720F0A21BB30BE40BE4
:10381000F50B661F771F881F991F1A9469F760952B
:103820007095809590959B01AC01BD01CF010895E5
:04383000F894FFCF3A
:10383400A6FF5A00070000028001DA0F4940000089
:0A384400E04000E100000000080071
:00000001FF
